{"contracts/MainContract.sol":{"MainContract":{"abi":[{"inputs":[{"internalType":"uint256","name":"","type":"uint256"}],"name":"Elections","outputs":[{"internalType":"address","name":"","type":"address"}],"stateMutability":"view","type":"function"},{"inputs":[{"internalType":"string[]","name":"_nda","type":"string[]"},{"internalType":"string[]","name":"_candidates","type":"string[]"}],"name":"createElection","outputs":[],"stateMutability":"nonpayable","type":"function"},{"inputs":[],"name":"electionId","outputs":[{"internalType":"uint256","name":"","type":"uint256"}],"stateMutability":"view","type":"function"}],"evm":{"bytecode":{"linkReferences":{},"object":"60806040526000805534801561001457600080fd5b5061184b806100246000396000f3fe60806040523480156200001157600080fd5b5060043610620000465760003560e01c8063051364d4146200004b5780631e9598e2146200006d5780633b26ad7f14620000a3575b600080fd5b62000055620000c3565b60405162000064919062000527565b60405180910390f35b6200008b6004803603810190620000859190620003a3565b620000c9565b6040516200009a9190620004cf565b60405180910390f35b620000c16004803603810190620000bb91906200031e565b620000fc565b005b60005481565b60016020528060005260406000206000915054906101000a900473ffffffffffffffffffffffffffffffffffffffff1681565b600082826040516200010e90620001ac565b6200011b929190620004ec565b604051809103906000f08015801562000138573d6000803e3d6000fd5b50905080600160008054815260200190815260200160002060006101000a81548173ffffffffffffffffffffffffffffffffffffffff021916908373ffffffffffffffffffffffffffffffffffffffff160217905550600080815480929190620001a290620006e0565b9190505550505050565b61104580620007d183390190565b6000620001d1620001cb846200056d565b62000544565b90508083825260208201905082856020860282011115620001f757620001f662000791565b5b60005b858110156200024c57813567ffffffffffffffff8111156200022157620002206200078c565b5b808601620002308982620002d4565b85526020850194506020840193505050600181019050620001fa565b5050509392505050565b60006200026d62000267846200059c565b62000544565b9050828152602081018484840111156200028c576200028b62000796565b5b6200029984828562000665565b509392505050565b600082601f830112620002b957620002b86200078c565b5b8135620002cb848260208601620001ba565b91505092915050565b600082601f830112620002ec57620002eb6200078c565b5b8135620002fe84826020860162000256565b91505092915050565b6000813590506200031881620007b6565b92915050565b60008060408385031215620003385762000337620007a0565b5b600083013567ffffffffffffffff8111156200035957620003586200079b565b5b6200036785828601620002a1565b925050602083013567ffffffffffffffff8111156200038b576200038a6200079b565b5b6200039985828601620002a1565b9150509250929050565b600060208284031215620003bc57620003bb620007a0565b5b6000620003cc8482850162000307565b91505092915050565b6000620003e383836200047d565b905092915050565b620003f68162000627565b82525050565b60006200040982620005e2565b62000415818562000605565b9350836020820285016200042985620005d2565b8060005b858110156200046b5784840389528151620004498582620003d5565b94506200045683620005f8565b925060208a019950506001810190506200042d565b50829750879550505050505092915050565b60006200048a82620005ed565b62000496818562000616565b9350620004a881856020860162000674565b620004b381620007a5565b840191505092915050565b620004c9816200065b565b82525050565b6000602082019050620004e66000830184620003eb565b92915050565b60006040820190508181036000830152620005088185620003fc565b905081810360208301526200051e8184620003fc565b90509392505050565b60006020820190506200053e6000830184620004be565b92915050565b60006200055062000563565b90506200055e8282620006aa565b919050565b6000604051905090565b600067ffffffffffffffff8211156200058b576200058a6200075d565b5b602082029050602081019050919050565b600067ffffffffffffffff821115620005ba57620005b96200075d565b5b620005c582620007a5565b9050602081019050919050565b6000819050602082019050919050565b600081519050919050565b600081519050919050565b6000602082019050919050565b600082825260208201905092915050565b600082825260208201905092915050565b600062000634826200063b565b9050919050565b600073ffffffffffffffffffffffffffffffffffffffff82169050919050565b6000819050919050565b82818337600083830152505050565b60005b838110156200069457808201518184015260208101905062000677565b83811115620006a4576000848401525b50505050565b620006b582620007a5565b810181811067ffffffffffffffff82111715620006d757620006d66200075d565b5b80604052505050565b6000620006ed826200065b565b91507fffffffffffffffffffffffffffffffffffffffffffffffffffffffffffffffff8214156200072357620007226200072e565b5b600182019050919050565b7f4e487b7100000000000000000000000000000000000000000000000000000000600052601160045260246000fd5b7f4e487b7100000000000000000000000000000000000000000000000000000000600052604160045260246000fd5b600080fd5b600080fd5b600080fd5b600080fd5b600080fd5b6000601f19601f8301169050919050565b620007c1816200065b565b8114620007cd57600080fd5b5056fe608060405260006004553480156200001657600080fd5b50604051620010453803806200104583398181016040528101906200003c9190620003ce565b600081511162000083576040517f08c379a00000000000000000000000000000000000000000000000000000000081526004016200007a906200047a565b60405180910390fd5b816000815181106200009a576200009962000693565b5b602002602001015160009080519060200190620000b9929190620001d1565b5081600181518110620000d157620000d062000693565b5b602002602001015160019080519060200190620000f0929190620001d1565b5060005b815181101562000142576200012c82828151811062000118576200011762000693565b5b60200260200101516200014b60201b60201c565b80806200013990620005e7565b915050620000f4565b5050506200076a565b604051806060016040528060045481526020018281526020016000815250600260006004548152602001908152602001600020600082015181600001556020820151816001019080519060200190620001a6929190620001d1565b506040820151816002015590505060046000815480929190620001c990620005e7565b919050555050565b828054620001df906200057b565b90600052602060002090601f0160209004810192826200020357600085556200024f565b82601f106200021e57805160ff19168380011785556200024f565b828001600101855582156200024f579182015b828111156200024e57825182559160200191906001019062000231565b5b5090506200025e919062000262565b5090565b5b808211156200027d57600081600090555060010162000263565b5090565b6000620002986200029284620004c5565b6200049c565b90508083825260208201905082856020860282011115620002be57620002bd620006f6565b5b60005b858110156200031357815167ffffffffffffffff811115620002e857620002e7620006f1565b5b808601620002f789826200039b565b85526020850194506020840193505050600181019050620002c1565b5050509392505050565b6000620003346200032e84620004f4565b6200049c565b905082815260208101848484011115620003535762000352620006fb565b5b6200036084828562000545565b509392505050565b600082601f83011262000380576200037f620006f1565b5b81516200039284826020860162000281565b91505092915050565b600082601f830112620003b357620003b2620006f1565b5b8151620003c58482602086016200031d565b91505092915050565b60008060408385031215620003e857620003e762000705565b5b600083015167ffffffffffffffff81111562000409576200040862000700565b5b620004178582860162000368565b925050602083015167ffffffffffffffff8111156200043b576200043a62000700565b5b620004498582860162000368565b9150509250929050565b6000620004626024836200052a565b91506200046f826200071b565b604082019050919050565b60006020820190508181036000830152620004958162000453565b9050919050565b6000620004a8620004bb565b9050620004b68282620005b1565b919050565b6000604051905090565b600067ffffffffffffffff821115620004e357620004e2620006c2565b5b602082029050602081019050919050565b600067ffffffffffffffff821115620005125762000511620006c2565b5b6200051d826200070a565b9050602081019050919050565b600082825260208201905092915050565b6000819050919050565b60005b838110156200056557808201518184015260208101905062000548565b8381111562000575576000848401525b50505050565b600060028204905060018216806200059457607f821691505b60208210811415620005ab57620005aa62000664565b5b50919050565b620005bc826200070a565b810181811067ffffffffffffffff82111715620005de57620005dd620006c2565b5b80604052505050565b6000620005f4826200053b565b91507fffffffffffffffffffffffffffffffffffffffffffffffffffffffffffffffff8214156200062a576200062962000635565b5b600182019050919050565b7f4e487b7100000000000000000000000000000000000000000000000000000000600052601160045260246000fd5b7f4e487b7100000000000000000000000000000000000000000000000000000000600052602260045260246000fd5b7f4e487b7100000000000000000000000000000000000000000000000000000000600052603260045260246000fd5b7f4e487b7100000000000000000000000000000000000000000000000000000000600052604160045260246000fd5b600080fd5b600080fd5b600080fd5b600080fd5b600080fd5b6000601f19601f8301169050919050565b7f54686572652073686f756c642062652061746c6561737420312063616e64696460008201527f6174652e00000000000000000000000000000000000000000000000000000000602082015250565b6108cb806200077a6000396000f3fe608060405234801561001057600080fd5b50600436106100625760003560e01c80630121b93f1461006757806306fdde03146100835780632d35a8a2146100a15780633477ee2e146100bf5780637284e416146100f1578063a3ec138d1461010f575b600080fd5b610081600480360381019061007c91906104ef565b61013f565b005b61008b6102a4565b60405161009891906105d4565b60405180910390f35b6100a9610332565b6040516100b69190610636565b60405180910390f35b6100d960048036038101906100d491906104ef565b610338565b6040516100e893929190610651565b60405180910390f35b6100f96103ea565b60405161010691906105d4565b60405180910390f35b610129600480360381019061012491906104c2565b610478565b60405161013691906105b9565b60405180910390f35b600360003373ffffffffffffffffffffffffffffffffffffffff1673ffffffffffffffffffffffffffffffffffffffff16815260200190815260200160002060009054906101000a900460ff16156101cc576040517f08c379a00000000000000000000000000000000000000000000000000000000081526004016101c390610616565b60405180910390fd5b600454811080156101de575060008110155b61021d576040517f08c379a0000000000000000000000000000000000000000000000000000000008152600401610214906105f6565b60405180910390fd5b6001600360003373ffffffffffffffffffffffffffffffffffffffff1673ffffffffffffffffffffffffffffffffffffffff16815260200190815260200160002060006101000a81548160ff02191690831515021790555060026000828152602001908152602001600020600201600081548092919061029c90610758565b919050555050565b600080546102b190610726565b80601f01602080910402602001604051908101604052809291908181526020018280546102dd90610726565b801561032a5780601f106102ff5761010080835404028352916020019161032a565b820191906000526020600020905b81548152906001019060200180831161030d57829003601f168201915b505050505081565b60045481565b600260205280600052604060002060009150905080600001549080600101805461036190610726565b80601f016020809104026020016040519081016040528092919081815260200182805461038d90610726565b80156103da5780601f106103af576101008083540402835291602001916103da565b820191906000526020600020905b8154815290600101906020018083116103bd57829003601f168201915b5050505050908060020154905083565b600180546103f790610726565b80601f016020809104026020016040519081016040528092919081815260200182805461042390610726565b80156104705780601f1061044557610100808354040283529160200191610470565b820191906000526020600020905b81548152906001019060200180831161045357829003601f168201915b505050505081565b60036020528060005260406000206000915054906101000a900460ff1681565b6000813590506104a781610867565b92915050565b6000813590506104bc8161087e565b92915050565b6000602082840312156104d8576104d76107ff565b5b60006104e684828501610498565b91505092915050565b600060208284031215610505576105046107ff565b5b6000610513848285016104ad565b91505092915050565b610525816106bd565b82525050565b60006105368261068f565b610540818561069a565b93506105508185602086016106f3565b61055981610804565b840191505092915050565b6000610571601a8361069a565b915061057c82610815565b602082019050919050565b600061059460188361069a565b915061059f8261083e565b602082019050919050565b6105b3816106e9565b82525050565b60006020820190506105ce600083018461051c565b92915050565b600060208201905081810360008301526105ee818461052b565b905092915050565b6000602082019050818103600083015261060f81610564565b9050919050565b6000602082019050818103600083015261062f81610587565b9050919050565b600060208201905061064b60008301846105aa565b92915050565b600060608201905061066660008301866105aa565b8181036020830152610678818561052b565b905061068760408301846105aa565b949350505050565b600081519050919050565b600082825260208201905092915050565b60006106b6826106c9565b9050919050565b60008115159050919050565b600073ffffffffffffffffffffffffffffffffffffffff82169050919050565b6000819050919050565b60005b838110156107115780820151818401526020810190506106f6565b83811115610720576000848401525b50505050565b6000600282049050600182168061073e57607f821691505b60208210811415610752576107516107d0565b5b50919050565b6000610763826106e9565b91507fffffffffffffffffffffffffffffffffffffffffffffffffffffffffffffffff821415610796576107956107a1565b5b600182019050919050565b7f4e487b7100000000000000000000000000000000000000000000000000000000600052601160045260246000fd5b7f4e487b7100000000000000000000000000000000000000000000000000000000600052602260045260246000fd5b600080fd5b6000601f19601f8301169050919050565b7f496e76616c69642063616e64696461746520746f20566f746521000000000000600082015250565b7f566f7465722068617320616c726561647920566f746564210000000000000000600082015250565b610870816106ab565b811461087b57600080fd5b50565b610887816106e9565b811461089257600080fd5b5056fea26469706673582212201753795baba1c26418775716d5c75f1b4e87faa4c0158e47ef404a9870a98ca964736f6c63430008060033a26469706673582212209ec04136d424c721e73f65cb9e7b1187d556ae552364290e3641a9b99175577864736f6c63430008060033","opcodes":"PUSH1 0x80 PUSH1 0x40 MSTORE PUSH1 0x0 DUP1 SSTORE CALLVALUE DUP1 ISZERO PUSH2 0x14 JUMPI PUSH1 0x0 DUP1 REVERT JUMPDEST POP PUSH2 0x184B DUP1 PUSH2 0x24 PUSH1 0x0 CODECOPY PUSH1 0x0 RETURN INVALID PUSH1 0x80 PUSH1 0x40 MSTORE CALLVALUE DUP1 ISZERO PUSH3 0x11 JUMPI PUSH1 0x0 DUP1 REVERT JUMPDEST POP PUSH1 0x4 CALLDATASIZE LT PUSH3 0x46 JUMPI PUSH1 0x0 CALLDATALOAD PUSH1 0xE0 SHR DUP1 PUSH4 0x51364D4 EQ PUSH3 0x4B JUMPI DUP1 PUSH4 0x1E9598E2 EQ PUSH3 0x6D JUMPI DUP1 PUSH4 0x3B26AD7F EQ PUSH3 0xA3 JUMPI JUMPDEST PUSH1 0x0 DUP1 REVERT JUMPDEST PUSH3 0x55 PUSH3 0xC3 JUMP JUMPDEST PUSH1 0x40 MLOAD PUSH3 0x64 SWAP2 SWAP1 PUSH3 0x527 JUMP JUMPDEST PUSH1 0x40 MLOAD DUP1 SWAP2 SUB SWAP1 RETURN JUMPDEST PUSH3 0x8B PUSH1 0x4 DUP1 CALLDATASIZE SUB DUP2 ADD SWAP1 PUSH3 0x85 SWAP2 SWAP1 PUSH3 0x3A3 JUMP JUMPDEST PUSH3 0xC9 JUMP JUMPDEST PUSH1 0x40 MLOAD PUSH3 0x9A SWAP2 SWAP1 PUSH3 0x4CF JUMP JUMPDEST PUSH1 0x40 MLOAD DUP1 SWAP2 SUB SWAP1 RETURN JUMPDEST PUSH3 0xC1 PUSH1 0x4 DUP1 CALLDATASIZE SUB DUP2 ADD SWAP1 PUSH3 0xBB SWAP2 SWAP1 PUSH3 0x31E JUMP JUMPDEST PUSH3 0xFC JUMP JUMPDEST STOP JUMPDEST PUSH1 0x0 SLOAD DUP2 JUMP JUMPDEST PUSH1 0x1 PUSH1 0x20 MSTORE DUP1 PUSH1 0x0 MSTORE PUSH1 0x40 PUSH1 0x0 KECCAK256 PUSH1 0x0 SWAP2 POP SLOAD SWAP1 PUSH2 0x100 EXP SWAP1 DIV PUSH20 0xFFFFFFFFFFFFFFFFFFFFFFFFFFFFFFFFFFFFFFFF AND DUP2 JUMP JUMPDEST PUSH1 0x0 DUP3 DUP3 PUSH1 0x40 MLOAD PUSH3 0x10E SWAP1 PUSH3 0x1AC JUMP JUMPDEST PUSH3 0x11B SWAP3 SWAP2 SWAP1 PUSH3 0x4EC JUMP JUMPDEST PUSH1 0x40 MLOAD DUP1 SWAP2 SUB SWAP1 PUSH1 0x0 CREATE DUP1 ISZERO DUP1 ISZERO PUSH3 0x138 JUMPI RETURNDATASIZE PUSH1 0x0 DUP1 RETURNDATACOPY RETURNDATASIZE PUSH1 0x0 REVERT JUMPDEST POP SWAP1 POP DUP1 PUSH1 0x1 PUSH1 0x0 DUP1 SLOAD DUP2 MSTORE PUSH1 0x20 ADD SWAP1 DUP2 MSTORE PUSH1 0x20 ADD PUSH1 0x0 KECCAK256 PUSH1 0x0 PUSH2 0x100 EXP DUP2 SLOAD DUP2 PUSH20 0xFFFFFFFFFFFFFFFFFFFFFFFFFFFFFFFFFFFFFFFF MUL NOT AND SWAP1 DUP4 PUSH20 0xFFFFFFFFFFFFFFFFFFFFFFFFFFFFFFFFFFFFFFFF AND MUL OR SWAP1 SSTORE POP PUSH1 0x0 DUP1 DUP2 SLOAD DUP1 SWAP3 SWAP2 SWAP1 PUSH3 0x1A2 SWAP1 PUSH3 0x6E0 JUMP JUMPDEST SWAP2 SWAP1 POP SSTORE POP POP POP POP JUMP JUMPDEST PUSH2 0x1045 DUP1 PUSH3 0x7D1 DUP4 CODECOPY ADD SWAP1 JUMP JUMPDEST PUSH1 0x0 PUSH3 0x1D1 PUSH3 0x1CB DUP5 PUSH3 0x56D JUMP JUMPDEST PUSH3 0x544 JUMP JUMPDEST SWAP1 POP DUP1 DUP4 DUP3 MSTORE PUSH1 0x20 DUP3 ADD SWAP1 POP DUP3 DUP6 PUSH1 0x20 DUP7 MUL DUP3 ADD GT ISZERO PUSH3 0x1F7 JUMPI PUSH3 0x1F6 PUSH3 0x791 JUMP JUMPDEST JUMPDEST PUSH1 0x0 JUMPDEST DUP6 DUP2 LT ISZERO PUSH3 0x24C JUMPI DUP2 CALLDATALOAD PUSH8 0xFFFFFFFFFFFFFFFF DUP2 GT ISZERO PUSH3 0x221 JUMPI PUSH3 0x220 PUSH3 0x78C JUMP JUMPDEST JUMPDEST DUP1 DUP7 ADD PUSH3 0x230 DUP10 DUP3 PUSH3 0x2D4 JUMP JUMPDEST DUP6 MSTORE PUSH1 0x20 DUP6 ADD SWAP5 POP PUSH1 0x20 DUP5 ADD SWAP4 POP POP POP PUSH1 0x1 DUP2 ADD SWAP1 POP PUSH3 0x1FA JUMP JUMPDEST POP POP POP SWAP4 SWAP3 POP POP POP JUMP JUMPDEST PUSH1 0x0 PUSH3 0x26D PUSH3 0x267 DUP5 PUSH3 0x59C JUMP JUMPDEST PUSH3 0x544 JUMP JUMPDEST SWAP1 POP DUP3 DUP2 MSTORE PUSH1 0x20 DUP2 ADD DUP5 DUP5 DUP5 ADD GT ISZERO PUSH3 0x28C JUMPI PUSH3 0x28B PUSH3 0x796 JUMP JUMPDEST JUMPDEST PUSH3 0x299 DUP5 DUP3 DUP6 PUSH3 0x665 JUMP JUMPDEST POP SWAP4 SWAP3 POP POP POP JUMP JUMPDEST PUSH1 0x0 DUP3 PUSH1 0x1F DUP4 ADD SLT PUSH3 0x2B9 JUMPI PUSH3 0x2B8 PUSH3 0x78C JUMP JUMPDEST JUMPDEST DUP2 CALLDATALOAD PUSH3 0x2CB DUP5 DUP3 PUSH1 0x20 DUP7 ADD PUSH3 0x1BA JUMP JUMPDEST SWAP2 POP POP SWAP3 SWAP2 POP POP JUMP JUMPDEST PUSH1 0x0 DUP3 PUSH1 0x1F DUP4 ADD SLT PUSH3 0x2EC JUMPI PUSH3 0x2EB PUSH3 0x78C JUMP JUMPDEST JUMPDEST DUP2 CALLDATALOAD PUSH3 0x2FE DUP5 DUP3 PUSH1 0x20 DUP7 ADD PUSH3 0x256 JUMP JUMPDEST SWAP2 POP POP SWAP3 SWAP2 POP POP JUMP JUMPDEST PUSH1 0x0 DUP2 CALLDATALOAD SWAP1 POP PUSH3 0x318 DUP2 PUSH3 0x7B6 JUMP JUMPDEST SWAP3 SWAP2 POP POP JUMP JUMPDEST PUSH1 0x0 DUP1 PUSH1 0x40 DUP4 DUP6 SUB SLT ISZERO PUSH3 0x338 JUMPI PUSH3 0x337 PUSH3 0x7A0 JUMP JUMPDEST JUMPDEST PUSH1 0x0 DUP4 ADD CALLDATALOAD PUSH8 0xFFFFFFFFFFFFFFFF DUP2 GT ISZERO PUSH3 0x359 JUMPI PUSH3 0x358 PUSH3 0x79B JUMP JUMPDEST JUMPDEST PUSH3 0x367 DUP6 DUP3 DUP7 ADD PUSH3 0x2A1 JUMP JUMPDEST SWAP3 POP POP PUSH1 0x20 DUP4 ADD CALLDATALOAD PUSH8 0xFFFFFFFFFFFFFFFF DUP2 GT ISZERO PUSH3 0x38B JUMPI PUSH3 0x38A PUSH3 0x79B JUMP JUMPDEST JUMPDEST PUSH3 0x399 DUP6 DUP3 DUP7 ADD PUSH3 0x2A1 JUMP JUMPDEST SWAP2 POP POP SWAP3 POP SWAP3 SWAP1 POP JUMP JUMPDEST PUSH1 0x0 PUSH1 0x20 DUP3 DUP5 SUB SLT ISZERO PUSH3 0x3BC JUMPI PUSH3 0x3BB PUSH3 0x7A0 JUMP JUMPDEST JUMPDEST PUSH1 0x0 PUSH3 0x3CC DUP5 DUP3 DUP6 ADD PUSH3 0x307 JUMP JUMPDEST SWAP2 POP POP SWAP3 SWAP2 POP POP JUMP JUMPDEST PUSH1 0x0 PUSH3 0x3E3 DUP4 DUP4 PUSH3 0x47D JUMP JUMPDEST SWAP1 POP SWAP3 SWAP2 POP POP JUMP JUMPDEST PUSH3 0x3F6 DUP2 PUSH3 0x627 JUMP JUMPDEST DUP3 MSTORE POP POP JUMP JUMPDEST PUSH1 0x0 PUSH3 0x409 DUP3 PUSH3 0x5E2 JUMP JUMPDEST PUSH3 0x415 DUP2 DUP6 PUSH3 0x605 JUMP JUMPDEST SWAP4 POP DUP4 PUSH1 0x20 DUP3 MUL DUP6 ADD PUSH3 0x429 DUP6 PUSH3 0x5D2 JUMP JUMPDEST DUP1 PUSH1 0x0 JUMPDEST DUP6 DUP2 LT ISZERO PUSH3 0x46B JUMPI DUP5 DUP5 SUB DUP10 MSTORE DUP2 MLOAD PUSH3 0x449 DUP6 DUP3 PUSH3 0x3D5 JUMP JUMPDEST SWAP5 POP PUSH3 0x456 DUP4 PUSH3 0x5F8 JUMP JUMPDEST SWAP3 POP PUSH1 0x20 DUP11 ADD SWAP10 POP POP PUSH1 0x1 DUP2 ADD SWAP1 POP PUSH3 0x42D JUMP JUMPDEST POP DUP3 SWAP8 POP DUP8 SWAP6 POP POP POP POP POP POP SWAP3 SWAP2 POP POP JUMP JUMPDEST PUSH1 0x0 PUSH3 0x48A DUP3 PUSH3 0x5ED JUMP JUMPDEST PUSH3 0x496 DUP2 DUP6 PUSH3 0x616 JUMP JUMPDEST SWAP4 POP PUSH3 0x4A8 DUP2 DUP6 PUSH1 0x20 DUP7 ADD PUSH3 0x674 JUMP JUMPDEST PUSH3 0x4B3 DUP2 PUSH3 0x7A5 JUMP JUMPDEST DUP5 ADD SWAP2 POP POP SWAP3 SWAP2 POP POP JUMP JUMPDEST PUSH3 0x4C9 DUP2 PUSH3 0x65B JUMP JUMPDEST DUP3 MSTORE POP POP JUMP JUMPDEST PUSH1 0x0 PUSH1 0x20 DUP3 ADD SWAP1 POP PUSH3 0x4E6 PUSH1 0x0 DUP4 ADD DUP5 PUSH3 0x3EB JUMP JUMPDEST SWAP3 SWAP2 POP POP JUMP JUMPDEST PUSH1 0x0 PUSH1 0x40 DUP3 ADD SWAP1 POP DUP2 DUP2 SUB PUSH1 0x0 DUP4 ADD MSTORE PUSH3 0x508 DUP2 DUP6 PUSH3 0x3FC JUMP JUMPDEST SWAP1 POP DUP2 DUP2 SUB PUSH1 0x20 DUP4 ADD MSTORE PUSH3 0x51E DUP2 DUP5 PUSH3 0x3FC JUMP JUMPDEST SWAP1 POP SWAP4 SWAP3 POP POP POP JUMP JUMPDEST PUSH1 0x0 PUSH1 0x20 DUP3 ADD SWAP1 POP PUSH3 0x53E PUSH1 0x0 DUP4 ADD DUP5 PUSH3 0x4BE JUMP JUMPDEST SWAP3 SWAP2 POP POP JUMP JUMPDEST PUSH1 0x0 PUSH3 0x550 PUSH3 0x563 JUMP JUMPDEST SWAP1 POP PUSH3 0x55E DUP3 DUP3 PUSH3 0x6AA JUMP JUMPDEST SWAP2 SWAP1 POP JUMP JUMPDEST PUSH1 0x0 PUSH1 0x40 MLOAD SWAP1 POP SWAP1 JUMP JUMPDEST PUSH1 0x0 PUSH8 0xFFFFFFFFFFFFFFFF DUP3 GT ISZERO PUSH3 0x58B JUMPI PUSH3 0x58A PUSH3 0x75D JUMP JUMPDEST JUMPDEST PUSH1 0x20 DUP3 MUL SWAP1 POP PUSH1 0x20 DUP2 ADD SWAP1 POP SWAP2 SWAP1 POP JUMP JUMPDEST PUSH1 0x0 PUSH8 0xFFFFFFFFFFFFFFFF DUP3 GT ISZERO PUSH3 0x5BA JUMPI PUSH3 0x5B9 PUSH3 0x75D JUMP JUMPDEST JUMPDEST PUSH3 0x5C5 DUP3 PUSH3 0x7A5 JUMP JUMPDEST SWAP1 POP PUSH1 0x20 DUP2 ADD SWAP1 POP SWAP2 SWAP1 POP JUMP JUMPDEST PUSH1 0x0 DUP2 SWAP1 POP PUSH1 0x20 DUP3 ADD SWAP1 POP SWAP2 SWAP1 POP JUMP JUMPDEST PUSH1 0x0 DUP2 MLOAD SWAP1 POP SWAP2 SWAP1 POP JUMP JUMPDEST PUSH1 0x0 DUP2 MLOAD SWAP1 POP SWAP2 SWAP1 POP JUMP JUMPDEST PUSH1 0x0 PUSH1 0x20 DUP3 ADD SWAP1 POP SWAP2 SWAP1 POP JUMP JUMPDEST PUSH1 0x0 DUP3 DUP3 MSTORE PUSH1 0x20 DUP3 ADD SWAP1 POP SWAP3 SWAP2 POP POP JUMP JUMPDEST PUSH1 0x0 DUP3 DUP3 MSTORE PUSH1 0x20 DUP3 ADD SWAP1 POP SWAP3 SWAP2 POP POP JUMP JUMPDEST PUSH1 0x0 PUSH3 0x634 DUP3 PUSH3 0x63B JUMP JUMPDEST SWAP1 POP SWAP2 SWAP1 POP JUMP JUMPDEST PUSH1 0x0 PUSH20 0xFFFFFFFFFFFFFFFFFFFFFFFFFFFFFFFFFFFFFFFF DUP3 AND SWAP1 POP SWAP2 SWAP1 POP JUMP JUMPDEST PUSH1 0x0 DUP2 SWAP1 POP SWAP2 SWAP1 POP JUMP JUMPDEST DUP3 DUP2 DUP4 CALLDATACOPY PUSH1 0x0 DUP4 DUP4 ADD MSTORE POP POP POP JUMP JUMPDEST PUSH1 0x0 JUMPDEST DUP4 DUP2 LT ISZERO PUSH3 0x694 JUMPI DUP1 DUP3 ADD MLOAD DUP2 DUP5 ADD MSTORE PUSH1 0x20 DUP2 ADD SWAP1 POP PUSH3 0x677 JUMP JUMPDEST DUP4 DUP2 GT ISZERO PUSH3 0x6A4 JUMPI PUSH1 0x0 DUP5 DUP5 ADD MSTORE JUMPDEST POP POP POP POP JUMP JUMPDEST PUSH3 0x6B5 DUP3 PUSH3 0x7A5 JUMP JUMPDEST DUP2 ADD DUP2 DUP2 LT PUSH8 0xFFFFFFFFFFFFFFFF DUP3 GT OR ISZERO PUSH3 0x6D7 JUMPI PUSH3 0x6D6 PUSH3 0x75D JUMP JUMPDEST JUMPDEST DUP1 PUSH1 0x40 MSTORE POP POP POP JUMP JUMPDEST PUSH1 0x0 PUSH3 0x6ED DUP3 PUSH3 0x65B JUMP JUMPDEST SWAP2 POP PUSH32 0xFFFFFFFFFFFFFFFFFFFFFFFFFFFFFFFFFFFFFFFFFFFFFFFFFFFFFFFFFFFFFFFF DUP3 EQ ISZERO PUSH3 0x723 JUMPI PUSH3 0x722 PUSH3 0x72E JUMP JUMPDEST JUMPDEST PUSH1 0x1 DUP3 ADD SWAP1 POP SWAP2 SWAP1 POP JUMP JUMPDEST PUSH32 0x4E487B7100000000000000000000000000000000000000000000000000000000 PUSH1 0x0 MSTORE PUSH1 0x11 PUSH1 0x4 MSTORE PUSH1 0x24 PUSH1 0x0 REVERT JUMPDEST PUSH32 0x4E487B7100000000000000000000000000000000000000000000000000000000 PUSH1 0x0 MSTORE PUSH1 0x41 PUSH1 0x4 MSTORE PUSH1 0x24 PUSH1 0x0 REVERT JUMPDEST PUSH1 0x0 DUP1 REVERT JUMPDEST PUSH1 0x0 DUP1 REVERT JUMPDEST PUSH1 0x0 DUP1 REVERT JUMPDEST PUSH1 0x0 DUP1 REVERT JUMPDEST PUSH1 0x0 DUP1 REVERT JUMPDEST PUSH1 0x0 PUSH1 0x1F NOT PUSH1 0x1F DUP4 ADD AND SWAP1 POP SWAP2 SWAP1 POP JUMP JUMPDEST PUSH3 0x7C1 DUP2 PUSH3 0x65B JUMP JUMPDEST DUP2 EQ PUSH3 0x7CD JUMPI PUSH1 0x0 DUP1 REVERT JUMPDEST POP JUMP INVALID PUSH1 0x80 PUSH1 0x40 MSTORE PUSH1 0x0 PUSH1 0x4 SSTORE CALLVALUE DUP1 ISZERO PUSH3 0x16 JUMPI PUSH1 0x0 DUP1 REVERT JUMPDEST POP PUSH1 0x40 MLOAD PUSH3 0x1045 CODESIZE SUB DUP1 PUSH3 0x1045 DUP4 CODECOPY DUP2 DUP2 ADD PUSH1 0x40 MSTORE DUP2 ADD SWAP1 PUSH3 0x3C SWAP2 SWAP1 PUSH3 0x3CE JUMP JUMPDEST PUSH1 0x0 DUP2 MLOAD GT PUSH3 0x83 JUMPI PUSH1 0x40 MLOAD PUSH32 0x8C379A000000000000000000000000000000000000000000000000000000000 DUP2 MSTORE PUSH1 0x4 ADD PUSH3 0x7A SWAP1 PUSH3 0x47A JUMP JUMPDEST PUSH1 0x40 MLOAD DUP1 SWAP2 SUB SWAP1 REVERT JUMPDEST DUP2 PUSH1 0x0 DUP2 MLOAD DUP2 LT PUSH3 0x9A JUMPI PUSH3 0x99 PUSH3 0x693 JUMP JUMPDEST JUMPDEST PUSH1 0x20 MUL PUSH1 0x20 ADD ADD MLOAD PUSH1 0x0 SWAP1 DUP1 MLOAD SWAP1 PUSH1 0x20 ADD SWAP1 PUSH3 0xB9 SWAP3 SWAP2 SWAP1 PUSH3 0x1D1 JUMP JUMPDEST POP DUP2 PUSH1 0x1 DUP2 MLOAD DUP2 LT PUSH3 0xD1 JUMPI PUSH3 0xD0 PUSH3 0x693 JUMP JUMPDEST JUMPDEST PUSH1 0x20 MUL PUSH1 0x20 ADD ADD MLOAD PUSH1 0x1 SWAP1 DUP1 MLOAD SWAP1 PUSH1 0x20 ADD SWAP1 PUSH3 0xF0 SWAP3 SWAP2 SWAP1 PUSH3 0x1D1 JUMP JUMPDEST POP PUSH1 0x0 JUMPDEST DUP2 MLOAD DUP2 LT ISZERO PUSH3 0x142 JUMPI PUSH3 0x12C DUP3 DUP3 DUP2 MLOAD DUP2 LT PUSH3 0x118 JUMPI PUSH3 0x117 PUSH3 0x693 JUMP JUMPDEST JUMPDEST PUSH1 0x20 MUL PUSH1 0x20 ADD ADD MLOAD PUSH3 0x14B PUSH1 0x20 SHL PUSH1 0x20 SHR JUMP JUMPDEST DUP1 DUP1 PUSH3 0x139 SWAP1 PUSH3 0x5E7 JUMP JUMPDEST SWAP2 POP POP PUSH3 0xF4 JUMP JUMPDEST POP POP POP PUSH3 0x76A JUMP JUMPDEST PUSH1 0x40 MLOAD DUP1 PUSH1 0x60 ADD PUSH1 0x40 MSTORE DUP1 PUSH1 0x4 SLOAD DUP2 MSTORE PUSH1 0x20 ADD DUP3 DUP2 MSTORE PUSH1 0x20 ADD PUSH1 0x0 DUP2 MSTORE POP PUSH1 0x2 PUSH1 0x0 PUSH1 0x4 SLOAD DUP2 MSTORE PUSH1 0x20 ADD SWAP1 DUP2 MSTORE PUSH1 0x20 ADD PUSH1 0x0 KECCAK256 PUSH1 0x0 DUP3 ADD MLOAD DUP2 PUSH1 0x0 ADD SSTORE PUSH1 0x20 DUP3 ADD MLOAD DUP2 PUSH1 0x1 ADD SWAP1 DUP1 MLOAD SWAP1 PUSH1 0x20 ADD SWAP1 PUSH3 0x1A6 SWAP3 SWAP2 SWAP1 PUSH3 0x1D1 JUMP JUMPDEST POP PUSH1 0x40 DUP3 ADD MLOAD DUP2 PUSH1 0x2 ADD SSTORE SWAP1 POP POP PUSH1 0x4 PUSH1 0x0 DUP2 SLOAD DUP1 SWAP3 SWAP2 SWAP1 PUSH3 0x1C9 SWAP1 PUSH3 0x5E7 JUMP JUMPDEST SWAP2 SWAP1 POP SSTORE POP POP JUMP JUMPDEST DUP3 DUP1 SLOAD PUSH3 0x1DF SWAP1 PUSH3 0x57B JUMP JUMPDEST SWAP1 PUSH1 0x0 MSTORE PUSH1 0x20 PUSH1 0x0 KECCAK256 SWAP1 PUSH1 0x1F ADD PUSH1 0x20 SWAP1 DIV DUP2 ADD SWAP3 DUP3 PUSH3 0x203 JUMPI PUSH1 0x0 DUP6 SSTORE PUSH3 0x24F JUMP JUMPDEST DUP3 PUSH1 0x1F LT PUSH3 0x21E JUMPI DUP1 MLOAD PUSH1 0xFF NOT AND DUP4 DUP1 ADD OR DUP6 SSTORE PUSH3 0x24F JUMP JUMPDEST DUP3 DUP1 ADD PUSH1 0x1 ADD DUP6 SSTORE DUP3 ISZERO PUSH3 0x24F JUMPI SWAP2 DUP3 ADD JUMPDEST DUP3 DUP2 GT ISZERO PUSH3 0x24E JUMPI DUP3 MLOAD DUP3 SSTORE SWAP2 PUSH1 0x20 ADD SWAP2 SWAP1 PUSH1 0x1 ADD SWAP1 PUSH3 0x231 JUMP JUMPDEST JUMPDEST POP SWAP1 POP PUSH3 0x25E SWAP2 SWAP1 PUSH3 0x262 JUMP JUMPDEST POP SWAP1 JUMP JUMPDEST JUMPDEST DUP1 DUP3 GT ISZERO PUSH3 0x27D JUMPI PUSH1 0x0 DUP2 PUSH1 0x0 SWAP1 SSTORE POP PUSH1 0x1 ADD PUSH3 0x263 JUMP JUMPDEST POP SWAP1 JUMP JUMPDEST PUSH1 0x0 PUSH3 0x298 PUSH3 0x292 DUP5 PUSH3 0x4C5 JUMP JUMPDEST PUSH3 0x49C JUMP JUMPDEST SWAP1 POP DUP1 DUP4 DUP3 MSTORE PUSH1 0x20 DUP3 ADD SWAP1 POP DUP3 DUP6 PUSH1 0x20 DUP7 MUL DUP3 ADD GT ISZERO PUSH3 0x2BE JUMPI PUSH3 0x2BD PUSH3 0x6F6 JUMP JUMPDEST JUMPDEST PUSH1 0x0 JUMPDEST DUP6 DUP2 LT ISZERO PUSH3 0x313 JUMPI DUP2 MLOAD PUSH8 0xFFFFFFFFFFFFFFFF DUP2 GT ISZERO PUSH3 0x2E8 JUMPI PUSH3 0x2E7 PUSH3 0x6F1 JUMP JUMPDEST JUMPDEST DUP1 DUP7 ADD PUSH3 0x2F7 DUP10 DUP3 PUSH3 0x39B JUMP JUMPDEST DUP6 MSTORE PUSH1 0x20 DUP6 ADD SWAP5 POP PUSH1 0x20 DUP5 ADD SWAP4 POP POP POP PUSH1 0x1 DUP2 ADD SWAP1 POP PUSH3 0x2C1 JUMP JUMPDEST POP POP POP SWAP4 SWAP3 POP POP POP JUMP JUMPDEST PUSH1 0x0 PUSH3 0x334 PUSH3 0x32E DUP5 PUSH3 0x4F4 JUMP JUMPDEST PUSH3 0x49C JUMP JUMPDEST SWAP1 POP DUP3 DUP2 MSTORE PUSH1 0x20 DUP2 ADD DUP5 DUP5 DUP5 ADD GT ISZERO PUSH3 0x353 JUMPI PUSH3 0x352 PUSH3 0x6FB JUMP JUMPDEST JUMPDEST PUSH3 0x360 DUP5 DUP3 DUP6 PUSH3 0x545 JUMP JUMPDEST POP SWAP4 SWAP3 POP POP POP JUMP JUMPDEST PUSH1 0x0 DUP3 PUSH1 0x1F DUP4 ADD SLT PUSH3 0x380 JUMPI PUSH3 0x37F PUSH3 0x6F1 JUMP JUMPDEST JUMPDEST DUP2 MLOAD PUSH3 0x392 DUP5 DUP3 PUSH1 0x20 DUP7 ADD PUSH3 0x281 JUMP JUMPDEST SWAP2 POP POP SWAP3 SWAP2 POP POP JUMP JUMPDEST PUSH1 0x0 DUP3 PUSH1 0x1F DUP4 ADD SLT PUSH3 0x3B3 JUMPI PUSH3 0x3B2 PUSH3 0x6F1 JUMP JUMPDEST JUMPDEST DUP2 MLOAD PUSH3 0x3C5 DUP5 DUP3 PUSH1 0x20 DUP7 ADD PUSH3 0x31D JUMP JUMPDEST SWAP2 POP POP SWAP3 SWAP2 POP POP JUMP JUMPDEST PUSH1 0x0 DUP1 PUSH1 0x40 DUP4 DUP6 SUB SLT ISZERO PUSH3 0x3E8 JUMPI PUSH3 0x3E7 PUSH3 0x705 JUMP JUMPDEST JUMPDEST PUSH1 0x0 DUP4 ADD MLOAD PUSH8 0xFFFFFFFFFFFFFFFF DUP2 GT ISZERO PUSH3 0x409 JUMPI PUSH3 0x408 PUSH3 0x700 JUMP JUMPDEST JUMPDEST PUSH3 0x417 DUP6 DUP3 DUP7 ADD PUSH3 0x368 JUMP JUMPDEST SWAP3 POP POP PUSH1 0x20 DUP4 ADD MLOAD PUSH8 0xFFFFFFFFFFFFFFFF DUP2 GT ISZERO PUSH3 0x43B JUMPI PUSH3 0x43A PUSH3 0x700 JUMP JUMPDEST JUMPDEST PUSH3 0x449 DUP6 DUP3 DUP7 ADD PUSH3 0x368 JUMP JUMPDEST SWAP2 POP POP SWAP3 POP SWAP3 SWAP1 POP JUMP JUMPDEST PUSH1 0x0 PUSH3 0x462 PUSH1 0x24 DUP4 PUSH3 0x52A JUMP JUMPDEST SWAP2 POP PUSH3 0x46F DUP3 PUSH3 0x71B JUMP JUMPDEST PUSH1 0x40 DUP3 ADD SWAP1 POP SWAP2 SWAP1 POP JUMP JUMPDEST PUSH1 0x0 PUSH1 0x20 DUP3 ADD SWAP1 POP DUP2 DUP2 SUB PUSH1 0x0 DUP4 ADD MSTORE PUSH3 0x495 DUP2 PUSH3 0x453 JUMP JUMPDEST SWAP1 POP SWAP2 SWAP1 POP JUMP JUMPDEST PUSH1 0x0 PUSH3 0x4A8 PUSH3 0x4BB JUMP JUMPDEST SWAP1 POP PUSH3 0x4B6 DUP3 DUP3 PUSH3 0x5B1 JUMP JUMPDEST SWAP2 SWAP1 POP JUMP JUMPDEST PUSH1 0x0 PUSH1 0x40 MLOAD SWAP1 POP SWAP1 JUMP JUMPDEST PUSH1 0x0 PUSH8 0xFFFFFFFFFFFFFFFF DUP3 GT ISZERO PUSH3 0x4E3 JUMPI PUSH3 0x4E2 PUSH3 0x6C2 JUMP JUMPDEST JUMPDEST PUSH1 0x20 DUP3 MUL SWAP1 POP PUSH1 0x20 DUP2 ADD SWAP1 POP SWAP2 SWAP1 POP JUMP JUMPDEST PUSH1 0x0 PUSH8 0xFFFFFFFFFFFFFFFF DUP3 GT ISZERO PUSH3 0x512 JUMPI PUSH3 0x511 PUSH3 0x6C2 JUMP JUMPDEST JUMPDEST PUSH3 0x51D DUP3 PUSH3 0x70A JUMP JUMPDEST SWAP1 POP PUSH1 0x20 DUP2 ADD SWAP1 POP SWAP2 SWAP1 POP JUMP JUMPDEST PUSH1 0x0 DUP3 DUP3 MSTORE PUSH1 0x20 DUP3 ADD SWAP1 POP SWAP3 SWAP2 POP POP JUMP JUMPDEST PUSH1 0x0 DUP2 SWAP1 POP SWAP2 SWAP1 POP JUMP JUMPDEST PUSH1 0x0 JUMPDEST DUP4 DUP2 LT ISZERO PUSH3 0x565 JUMPI DUP1 DUP3 ADD MLOAD DUP2 DUP5 ADD MSTORE PUSH1 0x20 DUP2 ADD SWAP1 POP PUSH3 0x548 JUMP JUMPDEST DUP4 DUP2 GT ISZERO PUSH3 0x575 JUMPI PUSH1 0x0 DUP5 DUP5 ADD MSTORE JUMPDEST POP POP POP POP JUMP JUMPDEST PUSH1 0x0 PUSH1 0x2 DUP3 DIV SWAP1 POP PUSH1 0x1 DUP3 AND DUP1 PUSH3 0x594 JUMPI PUSH1 0x7F DUP3 AND SWAP2 POP JUMPDEST PUSH1 0x20 DUP3 LT DUP2 EQ ISZERO PUSH3 0x5AB JUMPI PUSH3 0x5AA PUSH3 0x664 JUMP JUMPDEST JUMPDEST POP SWAP2 SWAP1 POP JUMP JUMPDEST PUSH3 0x5BC DUP3 PUSH3 0x70A JUMP JUMPDEST DUP2 ADD DUP2 DUP2 LT PUSH8 0xFFFFFFFFFFFFFFFF DUP3 GT OR ISZERO PUSH3 0x5DE JUMPI PUSH3 0x5DD PUSH3 0x6C2 JUMP JUMPDEST JUMPDEST DUP1 PUSH1 0x40 MSTORE POP POP POP JUMP JUMPDEST PUSH1 0x0 PUSH3 0x5F4 DUP3 PUSH3 0x53B JUMP JUMPDEST SWAP2 POP PUSH32 0xFFFFFFFFFFFFFFFFFFFFFFFFFFFFFFFFFFFFFFFFFFFFFFFFFFFFFFFFFFFFFFFF DUP3 EQ ISZERO PUSH3 0x62A JUMPI PUSH3 0x629 PUSH3 0x635 JUMP JUMPDEST JUMPDEST PUSH1 0x1 DUP3 ADD SWAP1 POP SWAP2 SWAP1 POP JUMP JUMPDEST PUSH32 0x4E487B7100000000000000000000000000000000000000000000000000000000 PUSH1 0x0 MSTORE PUSH1 0x11 PUSH1 0x4 MSTORE PUSH1 0x24 PUSH1 0x0 REVERT JUMPDEST PUSH32 0x4E487B7100000000000000000000000000000000000000000000000000000000 PUSH1 0x0 MSTORE PUSH1 0x22 PUSH1 0x4 MSTORE PUSH1 0x24 PUSH1 0x0 REVERT JUMPDEST PUSH32 0x4E487B7100000000000000000000000000000000000000000000000000000000 PUSH1 0x0 MSTORE PUSH1 0x32 PUSH1 0x4 MSTORE PUSH1 0x24 PUSH1 0x0 REVERT JUMPDEST PUSH32 0x4E487B7100000000000000000000000000000000000000000000000000000000 PUSH1 0x0 MSTORE PUSH1 0x41 PUSH1 0x4 MSTORE PUSH1 0x24 PUSH1 0x0 REVERT JUMPDEST PUSH1 0x0 DUP1 REVERT JUMPDEST PUSH1 0x0 DUP1 REVERT JUMPDEST PUSH1 0x0 DUP1 REVERT JUMPDEST PUSH1 0x0 DUP1 REVERT JUMPDEST PUSH1 0x0 DUP1 REVERT JUMPDEST PUSH1 0x0 PUSH1 0x1F NOT PUSH1 0x1F DUP4 ADD AND SWAP1 POP SWAP2 SWAP1 POP JUMP JUMPDEST PUSH32 0x54686572652073686F756C642062652061746C6561737420312063616E646964 PUSH1 0x0 DUP3 ADD MSTORE PUSH32 0x6174652E00000000000000000000000000000000000000000000000000000000 PUSH1 0x20 DUP3 ADD MSTORE POP JUMP JUMPDEST PUSH2 0x8CB DUP1 PUSH3 0x77A PUSH1 0x0 CODECOPY PUSH1 0x0 RETURN INVALID PUSH1 0x80 PUSH1 0x40 MSTORE CALLVALUE DUP1 ISZERO PUSH2 0x10 JUMPI PUSH1 0x0 DUP1 REVERT JUMPDEST POP PUSH1 0x4 CALLDATASIZE LT PUSH2 0x62 JUMPI PUSH1 0x0 CALLDATALOAD PUSH1 0xE0 SHR DUP1 PUSH4 0x121B93F EQ PUSH2 0x67 JUMPI DUP1 PUSH4 0x6FDDE03 EQ PUSH2 0x83 JUMPI DUP1 PUSH4 0x2D35A8A2 EQ PUSH2 0xA1 JUMPI DUP1 PUSH4 0x3477EE2E EQ PUSH2 0xBF JUMPI DUP1 PUSH4 0x7284E416 EQ PUSH2 0xF1 JUMPI DUP1 PUSH4 0xA3EC138D EQ PUSH2 0x10F JUMPI JUMPDEST PUSH1 0x0 DUP1 REVERT JUMPDEST PUSH2 0x81 PUSH1 0x4 DUP1 CALLDATASIZE SUB DUP2 ADD SWAP1 PUSH2 0x7C SWAP2 SWAP1 PUSH2 0x4EF JUMP JUMPDEST PUSH2 0x13F JUMP JUMPDEST STOP JUMPDEST PUSH2 0x8B PUSH2 0x2A4 JUMP JUMPDEST PUSH1 0x40 MLOAD PUSH2 0x98 SWAP2 SWAP1 PUSH2 0x5D4 JUMP JUMPDEST PUSH1 0x40 MLOAD DUP1 SWAP2 SUB SWAP1 RETURN JUMPDEST PUSH2 0xA9 PUSH2 0x332 JUMP JUMPDEST PUSH1 0x40 MLOAD PUSH2 0xB6 SWAP2 SWAP1 PUSH2 0x636 JUMP JUMPDEST PUSH1 0x40 MLOAD DUP1 SWAP2 SUB SWAP1 RETURN JUMPDEST PUSH2 0xD9 PUSH1 0x4 DUP1 CALLDATASIZE SUB DUP2 ADD SWAP1 PUSH2 0xD4 SWAP2 SWAP1 PUSH2 0x4EF JUMP JUMPDEST PUSH2 0x338 JUMP JUMPDEST PUSH1 0x40 MLOAD PUSH2 0xE8 SWAP4 SWAP3 SWAP2 SWAP1 PUSH2 0x651 JUMP JUMPDEST PUSH1 0x40 MLOAD DUP1 SWAP2 SUB SWAP1 RETURN JUMPDEST PUSH2 0xF9 PUSH2 0x3EA JUMP JUMPDEST PUSH1 0x40 MLOAD PUSH2 0x106 SWAP2 SWAP1 PUSH2 0x5D4 JUMP JUMPDEST PUSH1 0x40 MLOAD DUP1 SWAP2 SUB SWAP1 RETURN JUMPDEST PUSH2 0x129 PUSH1 0x4 DUP1 CALLDATASIZE SUB DUP2 ADD SWAP1 PUSH2 0x124 SWAP2 SWAP1 PUSH2 0x4C2 JUMP JUMPDEST PUSH2 0x478 JUMP JUMPDEST PUSH1 0x40 MLOAD PUSH2 0x136 SWAP2 SWAP1 PUSH2 0x5B9 JUMP JUMPDEST PUSH1 0x40 MLOAD DUP1 SWAP2 SUB SWAP1 RETURN JUMPDEST PUSH1 0x3 PUSH1 0x0 CALLER PUSH20 0xFFFFFFFFFFFFFFFFFFFFFFFFFFFFFFFFFFFFFFFF AND PUSH20 0xFFFFFFFFFFFFFFFFFFFFFFFFFFFFFFFFFFFFFFFF AND DUP2 MSTORE PUSH1 0x20 ADD SWAP1 DUP2 MSTORE PUSH1 0x20 ADD PUSH1 0x0 KECCAK256 PUSH1 0x0 SWAP1 SLOAD SWAP1 PUSH2 0x100 EXP SWAP1 DIV PUSH1 0xFF AND ISZERO PUSH2 0x1CC JUMPI PUSH1 0x40 MLOAD PUSH32 0x8C379A000000000000000000000000000000000000000000000000000000000 DUP2 MSTORE PUSH1 0x4 ADD PUSH2 0x1C3 SWAP1 PUSH2 0x616 JUMP JUMPDEST PUSH1 0x40 MLOAD DUP1 SWAP2 SUB SWAP1 REVERT JUMPDEST PUSH1 0x4 SLOAD DUP2 LT DUP1 ISZERO PUSH2 0x1DE JUMPI POP PUSH1 0x0 DUP2 LT ISZERO JUMPDEST PUSH2 0x21D JUMPI PUSH1 0x40 MLOAD PUSH32 0x8C379A000000000000000000000000000000000000000000000000000000000 DUP2 MSTORE PUSH1 0x4 ADD PUSH2 0x214 SWAP1 PUSH2 0x5F6 JUMP JUMPDEST PUSH1 0x40 MLOAD DUP1 SWAP2 SUB SWAP1 REVERT JUMPDEST PUSH1 0x1 PUSH1 0x3 PUSH1 0x0 CALLER PUSH20 0xFFFFFFFFFFFFFFFFFFFFFFFFFFFFFFFFFFFFFFFF AND PUSH20 0xFFFFFFFFFFFFFFFFFFFFFFFFFFFFFFFFFFFFFFFF AND DUP2 MSTORE PUSH1 0x20 ADD SWAP1 DUP2 MSTORE PUSH1 0x20 ADD PUSH1 0x0 KECCAK256 PUSH1 0x0 PUSH2 0x100 EXP DUP2 SLOAD DUP2 PUSH1 0xFF MUL NOT AND SWAP1 DUP4 ISZERO ISZERO MUL OR SWAP1 SSTORE POP PUSH1 0x2 PUSH1 0x0 DUP3 DUP2 MSTORE PUSH1 0x20 ADD SWAP1 DUP2 MSTORE PUSH1 0x20 ADD PUSH1 0x0 KECCAK256 PUSH1 0x2 ADD PUSH1 0x0 DUP2 SLOAD DUP1 SWAP3 SWAP2 SWAP1 PUSH2 0x29C SWAP1 PUSH2 0x758 JUMP JUMPDEST SWAP2 SWAP1 POP SSTORE POP POP JUMP JUMPDEST PUSH1 0x0 DUP1 SLOAD PUSH2 0x2B1 SWAP1 PUSH2 0x726 JUMP JUMPDEST DUP1 PUSH1 0x1F ADD PUSH1 0x20 DUP1 SWAP2 DIV MUL PUSH1 0x20 ADD PUSH1 0x40 MLOAD SWAP1 DUP2 ADD PUSH1 0x40 MSTORE DUP1 SWAP3 SWAP2 SWAP1 DUP2 DUP2 MSTORE PUSH1 0x20 ADD DUP3 DUP1 SLOAD PUSH2 0x2DD SWAP1 PUSH2 0x726 JUMP JUMPDEST DUP1 ISZERO PUSH2 0x32A JUMPI DUP1 PUSH1 0x1F LT PUSH2 0x2FF JUMPI PUSH2 0x100 DUP1 DUP4 SLOAD DIV MUL DUP4 MSTORE SWAP2 PUSH1 0x20 ADD SWAP2 PUSH2 0x32A JUMP JUMPDEST DUP3 ADD SWAP2 SWAP1 PUSH1 0x0 MSTORE PUSH1 0x20 PUSH1 0x0 KECCAK256 SWAP1 JUMPDEST DUP2 SLOAD DUP2 MSTORE SWAP1 PUSH1 0x1 ADD SWAP1 PUSH1 0x20 ADD DUP1 DUP4 GT PUSH2 0x30D JUMPI DUP3 SWAP1 SUB PUSH1 0x1F AND DUP3 ADD SWAP2 JUMPDEST POP POP POP POP POP DUP2 JUMP JUMPDEST PUSH1 0x4 SLOAD DUP2 JUMP JUMPDEST PUSH1 0x2 PUSH1 0x20 MSTORE DUP1 PUSH1 0x0 MSTORE PUSH1 0x40 PUSH1 0x0 KECCAK256 PUSH1 0x0 SWAP2 POP SWAP1 POP DUP1 PUSH1 0x0 ADD SLOAD SWAP1 DUP1 PUSH1 0x1 ADD DUP1 SLOAD PUSH2 0x361 SWAP1 PUSH2 0x726 JUMP JUMPDEST DUP1 PUSH1 0x1F ADD PUSH1 0x20 DUP1 SWAP2 DIV MUL PUSH1 0x20 ADD PUSH1 0x40 MLOAD SWAP1 DUP2 ADD PUSH1 0x40 MSTORE DUP1 SWAP3 SWAP2 SWAP1 DUP2 DUP2 MSTORE PUSH1 0x20 ADD DUP3 DUP1 SLOAD PUSH2 0x38D SWAP1 PUSH2 0x726 JUMP JUMPDEST DUP1 ISZERO PUSH2 0x3DA JUMPI DUP1 PUSH1 0x1F LT PUSH2 0x3AF JUMPI PUSH2 0x100 DUP1 DUP4 SLOAD DIV MUL DUP4 MSTORE SWAP2 PUSH1 0x20 ADD SWAP2 PUSH2 0x3DA JUMP JUMPDEST DUP3 ADD SWAP2 SWAP1 PUSH1 0x0 MSTORE PUSH1 0x20 PUSH1 0x0 KECCAK256 SWAP1 JUMPDEST DUP2 SLOAD DUP2 MSTORE SWAP1 PUSH1 0x1 ADD SWAP1 PUSH1 0x20 ADD DUP1 DUP4 GT PUSH2 0x3BD JUMPI DUP3 SWAP1 SUB PUSH1 0x1F AND DUP3 ADD SWAP2 JUMPDEST POP POP POP POP POP SWAP1 DUP1 PUSH1 0x2 ADD SLOAD SWAP1 POP DUP4 JUMP JUMPDEST PUSH1 0x1 DUP1 SLOAD PUSH2 0x3F7 SWAP1 PUSH2 0x726 JUMP JUMPDEST DUP1 PUSH1 0x1F ADD PUSH1 0x20 DUP1 SWAP2 DIV MUL PUSH1 0x20 ADD PUSH1 0x40 MLOAD SWAP1 DUP2 ADD PUSH1 0x40 MSTORE DUP1 SWAP3 SWAP2 SWAP1 DUP2 DUP2 MSTORE PUSH1 0x20 ADD DUP3 DUP1 SLOAD PUSH2 0x423 SWAP1 PUSH2 0x726 JUMP JUMPDEST DUP1 ISZERO PUSH2 0x470 JUMPI DUP1 PUSH1 0x1F LT PUSH2 0x445 JUMPI PUSH2 0x100 DUP1 DUP4 SLOAD DIV MUL DUP4 MSTORE SWAP2 PUSH1 0x20 ADD SWAP2 PUSH2 0x470 JUMP JUMPDEST DUP3 ADD SWAP2 SWAP1 PUSH1 0x0 MSTORE PUSH1 0x20 PUSH1 0x0 KECCAK256 SWAP1 JUMPDEST DUP2 SLOAD DUP2 MSTORE SWAP1 PUSH1 0x1 ADD SWAP1 PUSH1 0x20 ADD DUP1 DUP4 GT PUSH2 0x453 JUMPI DUP3 SWAP1 SUB PUSH1 0x1F AND DUP3 ADD SWAP2 JUMPDEST POP POP POP POP POP DUP2 JUMP JUMPDEST PUSH1 0x3 PUSH1 0x20 MSTORE DUP1 PUSH1 0x0 MSTORE PUSH1 0x40 PUSH1 0x0 KECCAK256 PUSH1 0x0 SWAP2 POP SLOAD SWAP1 PUSH2 0x100 EXP SWAP1 DIV PUSH1 0xFF AND DUP2 JUMP JUMPDEST PUSH1 0x0 DUP2 CALLDATALOAD SWAP1 POP PUSH2 0x4A7 DUP2 PUSH2 0x867 JUMP JUMPDEST SWAP3 SWAP2 POP POP JUMP JUMPDEST PUSH1 0x0 DUP2 CALLDATALOAD SWAP1 POP PUSH2 0x4BC DUP2 PUSH2 0x87E JUMP JUMPDEST SWAP3 SWAP2 POP POP JUMP JUMPDEST PUSH1 0x0 PUSH1 0x20 DUP3 DUP5 SUB SLT ISZERO PUSH2 0x4D8 JUMPI PUSH2 0x4D7 PUSH2 0x7FF JUMP JUMPDEST JUMPDEST PUSH1 0x0 PUSH2 0x4E6 DUP5 DUP3 DUP6 ADD PUSH2 0x498 JUMP JUMPDEST SWAP2 POP POP SWAP3 SWAP2 POP POP JUMP JUMPDEST PUSH1 0x0 PUSH1 0x20 DUP3 DUP5 SUB SLT ISZERO PUSH2 0x505 JUMPI PUSH2 0x504 PUSH2 0x7FF JUMP JUMPDEST JUMPDEST PUSH1 0x0 PUSH2 0x513 DUP5 DUP3 DUP6 ADD PUSH2 0x4AD JUMP JUMPDEST SWAP2 POP POP SWAP3 SWAP2 POP POP JUMP JUMPDEST PUSH2 0x525 DUP2 PUSH2 0x6BD JUMP JUMPDEST DUP3 MSTORE POP POP JUMP JUMPDEST PUSH1 0x0 PUSH2 0x536 DUP3 PUSH2 0x68F JUMP JUMPDEST PUSH2 0x540 DUP2 DUP6 PUSH2 0x69A JUMP JUMPDEST SWAP4 POP PUSH2 0x550 DUP2 DUP6 PUSH1 0x20 DUP7 ADD PUSH2 0x6F3 JUMP JUMPDEST PUSH2 0x559 DUP2 PUSH2 0x804 JUMP JUMPDEST DUP5 ADD SWAP2 POP POP SWAP3 SWAP2 POP POP JUMP JUMPDEST PUSH1 0x0 PUSH2 0x571 PUSH1 0x1A DUP4 PUSH2 0x69A JUMP JUMPDEST SWAP2 POP PUSH2 0x57C DUP3 PUSH2 0x815 JUMP JUMPDEST PUSH1 0x20 DUP3 ADD SWAP1 POP SWAP2 SWAP1 POP JUMP JUMPDEST PUSH1 0x0 PUSH2 0x594 PUSH1 0x18 DUP4 PUSH2 0x69A JUMP JUMPDEST SWAP2 POP PUSH2 0x59F DUP3 PUSH2 0x83E JUMP JUMPDEST PUSH1 0x20 DUP3 ADD SWAP1 POP SWAP2 SWAP1 POP JUMP JUMPDEST PUSH2 0x5B3 DUP2 PUSH2 0x6E9 JUMP JUMPDEST DUP3 MSTORE POP POP JUMP JUMPDEST PUSH1 0x0 PUSH1 0x20 DUP3 ADD SWAP1 POP PUSH2 0x5CE PUSH1 0x0 DUP4 ADD DUP5 PUSH2 0x51C JUMP JUMPDEST SWAP3 SWAP2 POP POP JUMP JUMPDEST PUSH1 0x0 PUSH1 0x20 DUP3 ADD SWAP1 POP DUP2 DUP2 SUB PUSH1 0x0 DUP4 ADD MSTORE PUSH2 0x5EE DUP2 DUP5 PUSH2 0x52B JUMP JUMPDEST SWAP1 POP SWAP3 SWAP2 POP POP JUMP JUMPDEST PUSH1 0x0 PUSH1 0x20 DUP3 ADD SWAP1 POP DUP2 DUP2 SUB PUSH1 0x0 DUP4 ADD MSTORE PUSH2 0x60F DUP2 PUSH2 0x564 JUMP JUMPDEST SWAP1 POP SWAP2 SWAP1 POP JUMP JUMPDEST PUSH1 0x0 PUSH1 0x20 DUP3 ADD SWAP1 POP DUP2 DUP2 SUB PUSH1 0x0 DUP4 ADD MSTORE PUSH2 0x62F DUP2 PUSH2 0x587 JUMP JUMPDEST SWAP1 POP SWAP2 SWAP1 POP JUMP JUMPDEST PUSH1 0x0 PUSH1 0x20 DUP3 ADD SWAP1 POP PUSH2 0x64B PUSH1 0x0 DUP4 ADD DUP5 PUSH2 0x5AA JUMP JUMPDEST SWAP3 SWAP2 POP POP JUMP JUMPDEST PUSH1 0x0 PUSH1 0x60 DUP3 ADD SWAP1 POP PUSH2 0x666 PUSH1 0x0 DUP4 ADD DUP7 PUSH2 0x5AA JUMP JUMPDEST DUP2 DUP2 SUB PUSH1 0x20 DUP4 ADD MSTORE PUSH2 0x678 DUP2 DUP6 PUSH2 0x52B JUMP JUMPDEST SWAP1 POP PUSH2 0x687 PUSH1 0x40 DUP4 ADD DUP5 PUSH2 0x5AA JUMP JUMPDEST SWAP5 SWAP4 POP POP POP POP JUMP JUMPDEST PUSH1 0x0 DUP2 MLOAD SWAP1 POP SWAP2 SWAP1 POP JUMP JUMPDEST PUSH1 0x0 DUP3 DUP3 MSTORE PUSH1 0x20 DUP3 ADD SWAP1 POP SWAP3 SWAP2 POP POP JUMP JUMPDEST PUSH1 0x0 PUSH2 0x6B6 DUP3 PUSH2 0x6C9 JUMP JUMPDEST SWAP1 POP SWAP2 SWAP1 POP JUMP JUMPDEST PUSH1 0x0 DUP2 ISZERO ISZERO SWAP1 POP SWAP2 SWAP1 POP JUMP JUMPDEST PUSH1 0x0 PUSH20 0xFFFFFFFFFFFFFFFFFFFFFFFFFFFFFFFFFFFFFFFF DUP3 AND SWAP1 POP SWAP2 SWAP1 POP JUMP JUMPDEST PUSH1 0x0 DUP2 SWAP1 POP SWAP2 SWAP1 POP JUMP JUMPDEST PUSH1 0x0 JUMPDEST DUP4 DUP2 LT ISZERO PUSH2 0x711 JUMPI DUP1 DUP3 ADD MLOAD DUP2 DUP5 ADD MSTORE PUSH1 0x20 DUP2 ADD SWAP1 POP PUSH2 0x6F6 JUMP JUMPDEST DUP4 DUP2 GT ISZERO PUSH2 0x720 JUMPI PUSH1 0x0 DUP5 DUP5 ADD MSTORE JUMPDEST POP POP POP POP JUMP JUMPDEST PUSH1 0x0 PUSH1 0x2 DUP3 DIV SWAP1 POP PUSH1 0x1 DUP3 AND DUP1 PUSH2 0x73E JUMPI PUSH1 0x7F DUP3 AND SWAP2 POP JUMPDEST PUSH1 0x20 DUP3 LT DUP2 EQ ISZERO PUSH2 0x752 JUMPI PUSH2 0x751 PUSH2 0x7D0 JUMP JUMPDEST JUMPDEST POP SWAP2 SWAP1 POP JUMP JUMPDEST PUSH1 0x0 PUSH2 0x763 DUP3 PUSH2 0x6E9 JUMP JUMPDEST SWAP2 POP PUSH32 0xFFFFFFFFFFFFFFFFFFFFFFFFFFFFFFFFFFFFFFFFFFFFFFFFFFFFFFFFFFFFFFFF DUP3 EQ ISZERO PUSH2 0x796 JUMPI PUSH2 0x795 PUSH2 0x7A1 JUMP JUMPDEST JUMPDEST PUSH1 0x1 DUP3 ADD SWAP1 POP SWAP2 SWAP1 POP JUMP JUMPDEST PUSH32 0x4E487B7100000000000000000000000000000000000000000000000000000000 PUSH1 0x0 MSTORE PUSH1 0x11 PUSH1 0x4 MSTORE PUSH1 0x24 PUSH1 0x0 REVERT JUMPDEST PUSH32 0x4E487B7100000000000000000000000000000000000000000000000000000000 PUSH1 0x0 MSTORE PUSH1 0x22 PUSH1 0x4 MSTORE PUSH1 0x24 PUSH1 0x0 REVERT JUMPDEST PUSH1 0x0 DUP1 REVERT JUMPDEST PUSH1 0x0 PUSH1 0x1F NOT PUSH1 0x1F DUP4 ADD AND SWAP1 POP SWAP2 SWAP1 POP JUMP JUMPDEST PUSH32 0x496E76616C69642063616E64696461746520746F20566F746521000000000000 PUSH1 0x0 DUP3 ADD MSTORE POP JUMP JUMPDEST PUSH32 0x566F7465722068617320616C726561647920566F746564210000000000000000 PUSH1 0x0 DUP3 ADD MSTORE POP JUMP JUMPDEST PUSH2 0x870 DUP2 PUSH2 0x6AB JUMP JUMPDEST DUP2 EQ PUSH2 0x87B JUMPI PUSH1 0x0 DUP1 REVERT JUMPDEST POP JUMP JUMPDEST PUSH2 0x887 DUP2 PUSH2 0x6E9 JUMP JUMPDEST DUP2 EQ PUSH2 0x892 JUMPI PUSH1 0x0 DUP1 REVERT JUMPDEST POP JUMP INVALID LOG2 PUSH5 0x6970667358 0x22 SLT KECCAK256 OR MSTORE8 PUSH26 0x5BABA1C26418775716D5C75F1B4E87FAA4C0158E47EF404A9870 0xA9 DUP13 0xA9 PUSH5 0x736F6C6343 STOP ADDMOD MOD STOP CALLER LOG2 PUSH5 0x6970667358 0x22 SLT KECCAK256 SWAP15 0xC0 COINBASE CALLDATASIZE 0xD4 0x24 0xC7 0x21 0xE7 EXTCODEHASH PUSH6 0xCB9E7B1187D5 JUMP 0xAE SSTORE 0x23 PUSH5 0x290E3641A9 0xB9 SWAP2 PUSH22 0x577864736F6C63430008060033000000000000000000 "},"methodIdentifiers":{"Elections(uint256)":"1e9598e2","createElection(string[],string[])":"3b26ad7f","electionId()":"051364d4"}}}}}