{
  "_format": "hh-sol-artifact-1",
  "contractName": "MainContract",
  "sourceName": "contracts/MainContract.sol",
  "abi": [
    {
      "inputs": [
        {
          "internalType": "uint256",
          "name": "",
          "type": "uint256"
        }
      ],
      "name": "Elections",
      "outputs": [
        {
          "internalType": "address",
          "name": "",
          "type": "address"
        }
      ],
      "stateMutability": "view",
      "type": "function"
    },
    {
      "inputs": [
        {
          "internalType": "string[]",
          "name": "_nda",
          "type": "string[]"
        },
        {
          "internalType": "string[]",
          "name": "_candidates",
          "type": "string[]"
        }
      ],
      "name": "createElection",
      "outputs": [],
      "stateMutability": "nonpayable",
      "type": "function"
    },
    {
      "inputs": [],
      "name": "electionId",
      "outputs": [
        {
          "internalType": "uint256",
          "name": "",
          "type": "uint256"
        }
      ],
      "stateMutability": "view",
      "type": "function"
    }
  ],
  "bytecode": "0x60806040526000805534801561001457600080fd5b5061184b806100246000396000f3fe60806040523480156200001157600080fd5b5060043610620000465760003560e01c8063051364d4146200004b5780631e9598e2146200006d5780633b26ad7f14620000a3575b600080fd5b62000055620000c3565b60405162000064919062000527565b60405180910390f35b6200008b6004803603810190620000859190620003a3565b620000c9565b6040516200009a9190620004cf565b60405180910390f35b620000c16004803603810190620000bb91906200031e565b620000fc565b005b60005481565b60016020528060005260406000206000915054906101000a900473ffffffffffffffffffffffffffffffffffffffff1681565b600082826040516200010e90620001ac565b6200011b929190620004ec565b604051809103906000f08015801562000138573d6000803e3d6000fd5b50905080600160008054815260200190815260200160002060006101000a81548173ffffffffffffffffffffffffffffffffffffffff021916908373ffffffffffffffffffffffffffffffffffffffff160217905550600080815480929190620001a290620006e0565b9190505550505050565b61104580620007d183390190565b6000620001d1620001cb846200056d565b62000544565b90508083825260208201905082856020860282011115620001f757620001f662000791565b5b60005b858110156200024c57813567ffffffffffffffff8111156200022157620002206200078c565b5b808601620002308982620002d4565b85526020850194506020840193505050600181019050620001fa565b5050509392505050565b60006200026d62000267846200059c565b62000544565b9050828152602081018484840111156200028c576200028b62000796565b5b6200029984828562000665565b509392505050565b600082601f830112620002b957620002b86200078c565b5b8135620002cb848260208601620001ba565b91505092915050565b600082601f830112620002ec57620002eb6200078c565b5b8135620002fe84826020860162000256565b91505092915050565b6000813590506200031881620007b6565b92915050565b60008060408385031215620003385762000337620007a0565b5b600083013567ffffffffffffffff8111156200035957620003586200079b565b5b6200036785828601620002a1565b925050602083013567ffffffffffffffff8111156200038b576200038a6200079b565b5b6200039985828601620002a1565b9150509250929050565b600060208284031215620003bc57620003bb620007a0565b5b6000620003cc8482850162000307565b91505092915050565b6000620003e383836200047d565b905092915050565b620003f68162000627565b82525050565b60006200040982620005e2565b62000415818562000605565b9350836020820285016200042985620005d2565b8060005b858110156200046b5784840389528151620004498582620003d5565b94506200045683620005f8565b925060208a019950506001810190506200042d565b50829750879550505050505092915050565b60006200048a82620005ed565b62000496818562000616565b9350620004a881856020860162000674565b620004b381620007a5565b840191505092915050565b620004c9816200065b565b82525050565b6000602082019050620004e66000830184620003eb565b92915050565b60006040820190508181036000830152620005088185620003fc565b905081810360208301526200051e8184620003fc565b90509392505050565b60006020820190506200053e6000830184620004be565b92915050565b60006200055062000563565b90506200055e8282620006aa565b919050565b6000604051905090565b600067ffffffffffffffff8211156200058b576200058a6200075d565b5b602082029050602081019050919050565b600067ffffffffffffffff821115620005ba57620005b96200075d565b5b620005c582620007a5565b9050602081019050919050565b6000819050602082019050919050565b600081519050919050565b600081519050919050565b6000602082019050919050565b600082825260208201905092915050565b600082825260208201905092915050565b600062000634826200063b565b9050919050565b600073ffffffffffffffffffffffffffffffffffffffff82169050919050565b6000819050919050565b82818337600083830152505050565b60005b838110156200069457808201518184015260208101905062000677565b83811115620006a4576000848401525b50505050565b620006b582620007a5565b810181811067ffffffffffffffff82111715620006d757620006d66200075d565b5b80604052505050565b6000620006ed826200065b565b91507fffffffffffffffffffffffffffffffffffffffffffffffffffffffffffffffff8214156200072357620007226200072e565b5b600182019050919050565b7f4e487b7100000000000000000000000000000000000000000000000000000000600052601160045260246000fd5b7f4e487b7100000000000000000000000000000000000000000000000000000000600052604160045260246000fd5b600080fd5b600080fd5b600080fd5b600080fd5b600080fd5b6000601f19601f8301169050919050565b620007c1816200065b565b8114620007cd57600080fd5b5056fe608060405260006004553480156200001657600080fd5b50604051620010453803806200104583398181016040528101906200003c9190620003ce565b600081511162000083576040517f08c379a00000000000000000000000000000000000000000000000000000000081526004016200007a906200047a565b60405180910390fd5b816000815181106200009a576200009962000693565b5b602002602001015160009080519060200190620000b9929190620001d1565b5081600181518110620000d157620000d062000693565b5b602002602001015160019080519060200190620000f0929190620001d1565b5060005b815181101562000142576200012c82828151811062000118576200011762000693565b5b60200260200101516200014b60201b60201c565b80806200013990620005e7565b915050620000f4565b5050506200076a565b604051806060016040528060045481526020018281526020016000815250600260006004548152602001908152602001600020600082015181600001556020820151816001019080519060200190620001a6929190620001d1565b506040820151816002015590505060046000815480929190620001c990620005e7565b919050555050565b828054620001df906200057b565b90600052602060002090601f0160209004810192826200020357600085556200024f565b82601f106200021e57805160ff19168380011785556200024f565b828001600101855582156200024f579182015b828111156200024e57825182559160200191906001019062000231565b5b5090506200025e919062000262565b5090565b5b808211156200027d57600081600090555060010162000263565b5090565b6000620002986200029284620004c5565b6200049c565b90508083825260208201905082856020860282011115620002be57620002bd620006f6565b5b60005b858110156200031357815167ffffffffffffffff811115620002e857620002e7620006f1565b5b808601620002f789826200039b565b85526020850194506020840193505050600181019050620002c1565b5050509392505050565b6000620003346200032e84620004f4565b6200049c565b905082815260208101848484011115620003535762000352620006fb565b5b6200036084828562000545565b509392505050565b600082601f83011262000380576200037f620006f1565b5b81516200039284826020860162000281565b91505092915050565b600082601f830112620003b357620003b2620006f1565b5b8151620003c58482602086016200031d565b91505092915050565b60008060408385031215620003e857620003e762000705565b5b600083015167ffffffffffffffff81111562000409576200040862000700565b5b620004178582860162000368565b925050602083015167ffffffffffffffff8111156200043b576200043a62000700565b5b620004498582860162000368565b9150509250929050565b6000620004626024836200052a565b91506200046f826200071b565b604082019050919050565b60006020820190508181036000830152620004958162000453565b9050919050565b6000620004a8620004bb565b9050620004b68282620005b1565b919050565b6000604051905090565b600067ffffffffffffffff821115620004e357620004e2620006c2565b5b602082029050602081019050919050565b600067ffffffffffffffff821115620005125762000511620006c2565b5b6200051d826200070a565b9050602081019050919050565b600082825260208201905092915050565b6000819050919050565b60005b838110156200056557808201518184015260208101905062000548565b8381111562000575576000848401525b50505050565b600060028204905060018216806200059457607f821691505b60208210811415620005ab57620005aa62000664565b5b50919050565b620005bc826200070a565b810181811067ffffffffffffffff82111715620005de57620005dd620006c2565b5b80604052505050565b6000620005f4826200053b565b91507fffffffffffffffffffffffffffffffffffffffffffffffffffffffffffffffff8214156200062a576200062962000635565b5b600182019050919050565b7f4e487b7100000000000000000000000000000000000000000000000000000000600052601160045260246000fd5b7f4e487b7100000000000000000000000000000000000000000000000000000000600052602260045260246000fd5b7f4e487b7100000000000000000000000000000000000000000000000000000000600052603260045260246000fd5b7f4e487b7100000000000000000000000000000000000000000000000000000000600052604160045260246000fd5b600080fd5b600080fd5b600080fd5b600080fd5b600080fd5b6000601f19601f8301169050919050565b7f54686572652073686f756c642062652061746c6561737420312063616e64696460008201527f6174652e00000000000000000000000000000000000000000000000000000000602082015250565b6108cb806200077a6000396000f3fe608060405234801561001057600080fd5b50600436106100625760003560e01c80630121b93f1461006757806306fdde03146100835780632d35a8a2146100a15780633477ee2e146100bf5780637284e416146100f1578063a3ec138d1461010f575b600080fd5b610081600480360381019061007c91906104ef565b61013f565b005b61008b6102a4565b60405161009891906105d4565b60405180910390f35b6100a9610332565b6040516100b69190610636565b60405180910390f35b6100d960048036038101906100d491906104ef565b610338565b6040516100e893929190610651565b60405180910390f35b6100f96103ea565b60405161010691906105d4565b60405180910390f35b610129600480360381019061012491906104c2565b610478565b60405161013691906105b9565b60405180910390f35b600360003373ffffffffffffffffffffffffffffffffffffffff1673ffffffffffffffffffffffffffffffffffffffff16815260200190815260200160002060009054906101000a900460ff16156101cc576040517f08c379a00000000000000000000000000000000000000000000000000000000081526004016101c390610616565b60405180910390fd5b600454811080156101de575060008110155b61021d576040517f08c379a0000000000000000000000000000000000000000000000000000000008152600401610214906105f6565b60405180910390fd5b6001600360003373ffffffffffffffffffffffffffffffffffffffff1673ffffffffffffffffffffffffffffffffffffffff16815260200190815260200160002060006101000a81548160ff02191690831515021790555060026000828152602001908152602001600020600201600081548092919061029c90610758565b919050555050565b600080546102b190610726565b80601f01602080910402602001604051908101604052809291908181526020018280546102dd90610726565b801561032a5780601f106102ff5761010080835404028352916020019161032a565b820191906000526020600020905b81548152906001019060200180831161030d57829003601f168201915b505050505081565b60045481565b600260205280600052604060002060009150905080600001549080600101805461036190610726565b80601f016020809104026020016040519081016040528092919081815260200182805461038d90610726565b80156103da5780601f106103af576101008083540402835291602001916103da565b820191906000526020600020905b8154815290600101906020018083116103bd57829003601f168201915b5050505050908060020154905083565b600180546103f790610726565b80601f016020809104026020016040519081016040528092919081815260200182805461042390610726565b80156104705780601f1061044557610100808354040283529160200191610470565b820191906000526020600020905b81548152906001019060200180831161045357829003601f168201915b505050505081565b60036020528060005260406000206000915054906101000a900460ff1681565b6000813590506104a781610867565b92915050565b6000813590506104bc8161087e565b92915050565b6000602082840312156104d8576104d76107ff565b5b60006104e684828501610498565b91505092915050565b600060208284031215610505576105046107ff565b5b6000610513848285016104ad565b91505092915050565b610525816106bd565b82525050565b60006105368261068f565b610540818561069a565b93506105508185602086016106f3565b61055981610804565b840191505092915050565b6000610571601a8361069a565b915061057c82610815565b602082019050919050565b600061059460188361069a565b915061059f8261083e565b602082019050919050565b6105b3816106e9565b82525050565b60006020820190506105ce600083018461051c565b92915050565b600060208201905081810360008301526105ee818461052b565b905092915050565b6000602082019050818103600083015261060f81610564565b9050919050565b6000602082019050818103600083015261062f81610587565b9050919050565b600060208201905061064b60008301846105aa565b92915050565b600060608201905061066660008301866105aa565b8181036020830152610678818561052b565b905061068760408301846105aa565b949350505050565b600081519050919050565b600082825260208201905092915050565b60006106b6826106c9565b9050919050565b60008115159050919050565b600073ffffffffffffffffffffffffffffffffffffffff82169050919050565b6000819050919050565b60005b838110156107115780820151818401526020810190506106f6565b83811115610720576000848401525b50505050565b6000600282049050600182168061073e57607f821691505b60208210811415610752576107516107d0565b5b50919050565b6000610763826106e9565b91507fffffffffffffffffffffffffffffffffffffffffffffffffffffffffffffffff821415610796576107956107a1565b5b600182019050919050565b7f4e487b7100000000000000000000000000000000000000000000000000000000600052601160045260246000fd5b7f4e487b7100000000000000000000000000000000000000000000000000000000600052602260045260246000fd5b600080fd5b6000601f19601f8301169050919050565b7f496e76616c69642063616e64696461746520746f20566f746521000000000000600082015250565b7f566f7465722068617320616c726561647920566f746564210000000000000000600082015250565b610870816106ab565b811461087b57600080fd5b50565b610887816106e9565b811461089257600080fd5b5056fea26469706673582212201753795baba1c26418775716d5c75f1b4e87faa4c0158e47ef404a9870a98ca964736f6c63430008060033a26469706673582212209ec04136d424c721e73f65cb9e7b1187d556ae552364290e3641a9b99175577864736f6c63430008060033",
  "linkReferences": {},
  "deployedLinkReferences": {}
}